{
  "_format": "hh-sol-artifact-1",
  "contractName": "AaveLiquidator",
  "sourceName": "contracts/AaveLiquidator.sol",
  "abi": [
    {
      "inputs": [],
      "stateMutability": "nonpayable",
      "type": "constructor"
    },
    {
      "anonymous": false,
      "inputs": [
        {
          "indexed": true,
          "internalType": "address",
          "name": "user",
          "type": "address"
        },
        {
          "indexed": true,
          "internalType": "address",
          "name": "collateralAsset",
          "type": "address"
        },
        {
          "indexed": true,
          "internalType": "address",
          "name": "debtAsset",
          "type": "address"
        },
        {
          "indexed": false,
          "internalType": "uint256",
          "name": "debtCovered",
          "type": "uint256"
        },
        {
          "indexed": false,
          "internalType": "uint256",
          "name": "collateralReceived",
          "type": "uint256"
        },
        {
          "indexed": false,
          "internalType": "uint256",
          "name": "profit",
          "type": "uint256"
        }
      ],
      "name": "LiquidationExecuted",
      "type": "event"
    },
    {
      "anonymous": false,
      "inputs": [
        {
          "indexed": true,
          "internalType": "address",
          "name": "previousOwner",
          "type": "address"
        },
        {
          "indexed": true,
          "internalType": "address",
          "name": "newOwner",
          "type": "address"
        }
      ],
      "name": "OwnershipTransferred",
      "type": "event"
    },
    {
      "anonymous": false,
      "inputs": [
        {
          "indexed": true,
          "internalType": "address",
          "name": "asset",
          "type": "address"
        },
        {
          "indexed": false,
          "internalType": "uint256",
          "name": "amount",
          "type": "uint256"
        },
        {
          "indexed": true,
          "internalType": "address",
          "name": "to",
          "type": "address"
        }
      ],
      "name": "ProfitWithdrawn",
      "type": "event"
    },
    {
      "inputs": [],
      "name": "ADDRESSES_PROVIDER",
      "outputs": [
        {
          "internalType": "contract IPoolAddressesProvider",
          "name": "",
          "type": "address"
        }
      ],
      "stateMutability": "view",
      "type": "function"
    },
    {
      "inputs": [],
      "name": "MAX_SLIPPAGE",
      "outputs": [
        {
          "internalType": "uint256",
          "name": "",
          "type": "uint256"
        }
      ],
      "stateMutability": "view",
      "type": "function"
    },
    {
      "inputs": [],
      "name": "POOL",
      "outputs": [
        {
          "internalType": "contract IPool",
          "name": "",
          "type": "address"
        }
      ],
      "stateMutability": "view",
      "type": "function"
    },
    {
      "inputs": [],
      "name": "SWAP_ROUTER",
      "outputs": [
        {
          "internalType": "address",
          "name": "",
          "type": "address"
        }
      ],
      "stateMutability": "view",
      "type": "function"
    },
    {
      "inputs": [
        {
          "internalType": "address",
          "name": "token",
          "type": "address"
        },
        {
          "internalType": "address",
          "name": "spender",
          "type": "address"
        },
        {
          "internalType": "uint256",
          "name": "amount",
          "type": "uint256"
        }
      ],
      "name": "emergencyApprove",
      "outputs": [],
      "stateMutability": "nonpayable",
      "type": "function"
    },
    {
      "inputs": [
        {
          "internalType": "address[]",
          "name": "assets",
          "type": "address[]"
        },
        {
          "internalType": "uint256[]",
          "name": "amounts",
          "type": "uint256[]"
        },
        {
          "internalType": "uint256[]",
          "name": "premiums",
          "type": "uint256[]"
        },
        {
          "internalType": "address",
          "name": "initiator",
          "type": "address"
        },
        {
          "internalType": "bytes",
          "name": "params",
          "type": "bytes"
        }
      ],
      "name": "executeOperation",
      "outputs": [
        {
          "internalType": "bool",
          "name": "",
          "type": "bool"
        }
      ],
      "stateMutability": "nonpayable",
      "type": "function"
    },
    {
      "inputs": [],
      "name": "getPool",
      "outputs": [
        {
          "internalType": "address",
          "name": "",
          "type": "address"
        }
      ],
      "stateMutability": "pure",
      "type": "function"
    },
    {
      "inputs": [
        {
          "internalType": "address",
          "name": "user",
          "type": "address"
        },
        {
          "internalType": "address",
          "name": "collateralAsset",
          "type": "address"
        },
        {
          "internalType": "address",
          "name": "debtAsset",
          "type": "address"
        },
        {
          "internalType": "uint256",
          "name": "debtToCover",
          "type": "uint256"
        },
        {
          "internalType": "bool",
          "name": "receiveAToken",
          "type": "bool"
        },
        {
          "internalType": "uint16",
          "name": "collateralAssetId",
          "type": "uint16"
        },
        {
          "internalType": "uint16",
          "name": "debtAssetId",
          "type": "uint16"
        }
      ],
      "name": "liquidate",
      "outputs": [],
      "stateMutability": "nonpayable",
      "type": "function"
    },
    {
      "inputs": [],
      "name": "minProfitThreshold",
      "outputs": [
        {
          "internalType": "uint256",
          "name": "",
          "type": "uint256"
        }
      ],
      "stateMutability": "view",
      "type": "function"
    },
    {
      "inputs": [],
      "name": "owner",
      "outputs": [
        {
          "internalType": "address",
          "name": "",
          "type": "address"
        }
      ],
      "stateMutability": "view",
      "type": "function"
    },
    {
      "inputs": [],
      "name": "renounceOwnership",
      "outputs": [],
      "stateMutability": "nonpayable",
      "type": "function"
    },
    {
      "inputs": [
        {
          "internalType": "uint256",
          "name": "newThreshold",
          "type": "uint256"
        }
      ],
      "name": "setMinProfitThreshold",
      "outputs": [],
      "stateMutability": "nonpayable",
      "type": "function"
    },
    {
      "inputs": [
        {
          "internalType": "address",
          "name": "newOwner",
          "type": "address"
        }
      ],
      "name": "transferOwnership",
      "outputs": [],
      "stateMutability": "nonpayable",
      "type": "function"
    },
    {
      "inputs": [
        {
          "internalType": "address",
          "name": "asset",
          "type": "address"
        },
        {
          "internalType": "uint256",
          "name": "amount",
          "type": "uint256"
        },
        {
          "internalType": "address",
          "name": "to",
          "type": "address"
        }
      ],
      "name": "withdraw",
      "outputs": [],
      "stateMutability": "nonpayable",
      "type": "function"
    },
    {
      "inputs": [
        {
          "internalType": "address payable",
          "name": "to",
          "type": "address"
        }
      ],
      "name": "withdrawETH",
      "outputs": [],
      "stateMutability": "nonpayable",
      "type": "function"
    },
    {
      "stateMutability": "payable",
      "type": "receive"
    }
  ],
  "bytecode": "0x6080604052631dcd650060025534801561001857600080fd5b506100223361002b565b6001805561007b565b600080546001600160a01b038381166001600160a01b0319831681178455604051919092169283917f8be0079c531659141344cd1fd0a4f28419497f9722a3daafe3b4186f6b6457e09190a35050565b611ad58061008a6000396000f3fe6080604052600436106100ec5760003560e01c80638da5cb5b1161008a578063c600589311610059578063c600589314610268578063d05411da14610290578063f2fde38b146102b0578063f9759518146102d057600080fd5b80638da5cb5b146101da578063920f5c84146101f8578063a51455c814610228578063c02864651461024857600080fd5b806369328dec116100c657806369328dec14610181578063715018a6146101a15780637341ab8c146101b65780637535d246146100f857600080fd5b8063026b1d5f146100f85780630542975c14610138578063690d83201461015f57600080fd5b366100f357005b600080fd5b34801561010457600080fd5b5073a238dd80c259a72e81d7e4664a9801593f98d1c55b6040516001600160a01b0390911681526020015b60405180910390f35b34801561014457600080fd5b50732f39d218133afab8f2b819b1066c7e434ad94e9e61011b565b34801561016b57600080fd5b5061017f61017a366004611499565b6102e6565b005b34801561018d57600080fd5b5061017f61019c3660046114cd565b61041e565b3480156101ad57600080fd5b5061017f6105e4565b3480156101c257600080fd5b506101cc60025481565b60405190815260200161012f565b3480156101e657600080fd5b506000546001600160a01b031661011b565b34801561020457600080fd5b5061021861021336600461155b565b6105f8565b604051901515815260200161012f565b34801561023457600080fd5b5061017f61024336600461168b565b610993565b34801561025457600080fd5b5061017f610263366004611712565b610c7e565b34801561027457600080fd5b5061011b732626664c2603336e57b271c5c0b26f421741e48181565b34801561029c57600080fd5b5061017f6102ab36600461172b565b610c8b565b3480156102bc57600080fd5b5061017f6102cb366004611499565b610ca7565b3480156102dc57600080fd5b506101cc6101f481565b6102ee610d20565b6001600160a01b03811661033d5760405162461bcd60e51b8152602060048201526011602482015270125b9d985b1a59081c9958da5c1a595b9d607a1b60448201526064015b60405180910390fd5b47806103805760405162461bcd60e51b81526020600482015260126024820152714e6f2045544820746f20776974686472617760701b6044820152606401610334565b6000826001600160a01b03168260405160006040518083038185875af1925050503d80600081146103cd576040519150601f19603f3d011682016040523d82523d6000602084013e6103d2565b606091505b50509050806104195760405162461bcd60e51b8152602060048201526013602482015272115512081d1c985b9cd9995c8819985a5b1959606a1b6044820152606401610334565b505050565b610426610d20565b6001600160a01b0381166104705760405162461bcd60e51b8152602060048201526011602482015270125b9d985b1a59081c9958da5c1a595b9d607a1b6044820152606401610334565b6040516370a0823160e01b81523060048201526000906001600160a01b038516906370a0823190602401602060405180830381865afa1580156104b7573d6000803e3d6000fd5b505050506040513d601f19601f820116820180604052508101906104db919061176c565b9050600083156104eb57836104ed565b815b9050818111156105365760405162461bcd60e51b8152602060048201526014602482015273496e73756666696369656e742062616c616e636560601b6044820152606401610334565b6000811161057c5760405162461bcd60e51b81526020600482015260136024820152724e6f7468696e6720746f20776974686472617760681b6044820152606401610334565b6105906001600160a01b0386168483610d7a565b826001600160a01b0316856001600160a01b03167fe6fee221bb8a85476104e6b67ae7b66010866c78f60f8ce4946f80da6ce04df0836040516105d591815260200190565b60405180910390a35050505050565b6105ec610d20565b6105f66000610ddd565b565b60003373a238dd80c259a72e81d7e4664a9801593f98d1c51461065d5760405162461bcd60e51b815260206004820152601860248201527f43616c6c6572206d757374206265204161766520506f6f6c00000000000000006044820152606401610334565b6001600160a01b03841630146106a95760405162461bcd60e51b815260206004820152601160248201527024b73b30b634b21034b734ba34b0ba37b960791b6044820152606401610334565b60006106b783850185611785565b905060008b8b60008181106106ce576106ce611831565b90506020020160208101906106e39190611499565b905060008a8a60008181106106fa576106fa611831565b90506020020135905060008989600081811061071857610718611831565b6020029190910135915061074c90506001600160a01b03841673a238dd80c259a72e81d7e4664a9801593f98d1c584610e2d565b6107568483610f42565b60208401516040516370a0823160e01b81523060048201526000916001600160a01b0316906370a0823190602401602060405180830381865afa1580156107a1573d6000803e3d6000fd5b505050506040513d601f19601f820116820180604052508101906107c5919061176c565b6040516370a0823160e01b81523060048201529091506000906001600160a01b038616906370a0823190602401602060405180830381865afa15801561080f573d6000803e3d6000fd5b505050506040513d601f19601f82011682018060405250810190610833919061176c565b9050846001600160a01b031686602001516001600160a01b03161415801561085b5750600082115b1561087c5761086f86602001518684611000565b610879908261185d565b90505b6000610888848661185d565b9050808210156108e95760405162461bcd60e51b815260206004820152602660248201527f496e73756666696369656e742066756e647320746f20726570617920666c617360448201526534103637b0b760d11b6064820152608401610334565b6109116001600160a01b03871673a238dd80c259a72e81d7e4664a9801593f98d1c583610e2d565b600061091d8284611876565b6020808a01518a51604080518b815293840189905283018490529293506001600160a01b03808b1693918116929116907f77dabbf924a6f11f55b1042aa168a422b93d6d1b6db5d812f2c479c16a512da79060600160405180910390a46001985050505050505050509998505050505050505050565b61099b610d20565b6109a36111c6565b60006040518060e00160405280896001600160a01b03168152602001886001600160a01b03168152602001876001600160a01b0316815260200186815260200185151581526020018461ffff1681526020018361ffff168152509050600081604051602001610a68919081516001600160a01b039081168252602080840151821690830152604080840151909116908201526060808301519082015260808083015115159082015260a0828101519082015260c0918201519181019190915260e00190565b60408051601f1981840301815291905290508560018101610b1a57604051632fe4a15f60e21b81526001600160a01b038b16600482015260009073a238dd80c259a72e81d7e4664a9801593f98d1c59063bf92857c9060240160c060405180830381865afa158015610ade573d6000803e3d6000fd5b505050506040513d601f19601f82011682018060405250810190610b029190611889565b50505050915050600281610b1691906118d3565b9150505b604080516001808252818301909252600091602080830190803683370190505090508881600081518110610b5057610b50611831565b6001600160a01b0392909216602092830291909101909101526040805160018082528183019092526000918160200160208202803683370190505090508281600081518110610ba157610ba1611831565b6020908102919091010152604080516001808252818301909252600091816020016020820280368337019050509050600081600081518110610be557610be5611831565b602090810291909101015260405163ab9c4b5d60e01b815273a238dd80c259a72e81d7e4664a9801593f98d1c59063ab9c4b5d90610c3490309087908790879084908d90600090600401611980565b600060405180830381600087803b158015610c4e57600080fd5b505af1158015610c62573d6000803e3d6000fd5b50505050505050505050610c7560018055565b50505050505050565b610c86610d20565b600255565b610c93610d20565b6104196001600160a01b0384168383610e2d565b610caf610d20565b6001600160a01b038116610d145760405162461bcd60e51b815260206004820152602660248201527f4f776e61626c653a206e6577206f776e657220697320746865207a65726f206160448201526564647265737360d01b6064820152608401610334565b610d1d81610ddd565b50565b6000546001600160a01b031633146105f65760405162461bcd60e51b815260206004820181905260248201527f4f776e61626c653a2063616c6c6572206973206e6f7420746865206f776e65726044820152606401610334565b6040516001600160a01b03831660248201526044810182905261041990849063a9059cbb60e01b906064015b60408051601f198184030181529190526020810180516001600160e01b03166001600160e01b03199093169290921790915261121f565b600080546001600160a01b038381166001600160a01b0319831681178455604051919092169283917f8be0079c531659141344cd1fd0a4f28419497f9722a3daafe3b4186f6b6457e09190a35050565b801580610ea75750604051636eb1769f60e11b81523060048201526001600160a01b03838116602483015284169063dd62ed3e90604401602060405180830381865afa158015610e81573d6000803e3d6000fd5b505050506040513d601f19601f82011682018060405250810190610ea5919061176c565b155b610f125760405162461bcd60e51b815260206004820152603660248201527f5361666545524332303a20617070726f76652066726f6d206e6f6e2d7a65726f60448201527520746f206e6f6e2d7a65726f20616c6c6f77616e636560501b6064820152608401610334565b6040516001600160a01b03831660248201526044810182905261041990849063095ea7b360e01b90606401610da6565b600082600001516001600160a01b031660e08460c00151901b60f08560a00151901b171760001b905060008360800151610f7d576000610f80565b60015b60405163fd21ecff60e01b81526004810184905260ff91909116608085901b1760248201819052915073a238dd80c259a72e81d7e4664a9801593f98d1c59063fd21ecff90604401600060405180830381600087803b158015610fe257600080fd5b505af1158015610ff6573d6000803e3d6000fd5b5050505050505050565b600061102a6001600160a01b038516732626664c2603336e57b271c5c0b26f421741e48184610e2d565b600061271061103b6101f482611876565b6110459085611a3c565b61104f91906118d3565b90506000604051806101000160405280876001600160a01b03168152602001866001600160a01b03168152602001610bb862ffffff168152602001306001600160a01b031681526020014261012c6110a7919061185d565b8152602080820187905260408083018690526000606093840152805163414bf38960e01b815284516001600160a01b03908116600483015292850151831660248201529084015162ffffff16604482015291830151811660648301526080830151608483015260a083015160a483015260c083015160c483015260e08301511660e4820152909150732626664c2603336e57b271c5c0b26f421741e4819063414bf38990610104016020604051808303816000875af115801561116e573d6000803e3d6000fd5b505050506040513d601f19601f82011682018060405250810190611192919061176c565b92506111bd6001600160a01b038716732626664c2603336e57b271c5c0b26f421741e4816000610e2d565b50509392505050565b6002600154036112185760405162461bcd60e51b815260206004820152601f60248201527f5265656e7472616e637947756172643a207265656e7472616e742063616c6c006044820152606401610334565b6002600155565b6000611274826040518060400160405280602081526020017f5361666545524332303a206c6f772d6c6576656c2063616c6c206661696c6564815250856001600160a01b03166112f49092919063ffffffff16565b90508051600014806112955750808060200190518101906112959190611a53565b6104195760405162461bcd60e51b815260206004820152602a60248201527f5361666545524332303a204552433230206f7065726174696f6e20646964206e6044820152691bdd081cdd58d8d9595960b21b6064820152608401610334565b6060611303848460008561130b565b949350505050565b60608247101561136c5760405162461bcd60e51b815260206004820152602660248201527f416464726573733a20696e73756666696369656e742062616c616e636520666f6044820152651c8818d85b1b60d21b6064820152608401610334565b600080866001600160a01b031685876040516113889190611a70565b60006040518083038185875af1925050503d80600081146113c5576040519150601f19603f3d011682016040523d82523d6000602084013e6113ca565b606091505b50915091506113db878383876113e6565b979650505050505050565b6060831561145557825160000361144e576001600160a01b0385163b61144e5760405162461bcd60e51b815260206004820152601d60248201527f416464726573733a2063616c6c20746f206e6f6e2d636f6e74726163740000006044820152606401610334565b5081611303565b611303838381511561146a5781518083602001fd5b8060405162461bcd60e51b81526004016103349190611a8c565b6001600160a01b0381168114610d1d57600080fd5b6000602082840312156114ab57600080fd5b81356114b681611484565b9392505050565b80356114c881611484565b919050565b6000806000606084860312156114e257600080fd5b83356114ed81611484565b925060208401359150604084013561150481611484565b809150509250925092565b60008083601f84011261152157600080fd5b50813567ffffffffffffffff81111561153957600080fd5b6020830191508360208260051b850101111561155457600080fd5b9250929050565b600080600080600080600080600060a08a8c03121561157957600080fd5b893567ffffffffffffffff8082111561159157600080fd5b61159d8d838e0161150f565b909b50995060208c01359150808211156115b657600080fd5b6115c28d838e0161150f565b909950975060408c01359150808211156115db57600080fd5b6115e78d838e0161150f565b909750955060608c013591506115fc82611484565b90935060808b0135908082111561161257600080fd5b818c0191508c601f83011261162657600080fd5b81358181111561163557600080fd5b8d602082850101111561164757600080fd5b6020830194508093505050509295985092959850929598565b8015158114610d1d57600080fd5b80356114c881611660565b803561ffff811681146114c857600080fd5b600080600080600080600060e0888a0312156116a657600080fd5b87356116b181611484565b965060208801356116c181611484565b955060408801356116d181611484565b94506060880135935060808801356116e881611660565b92506116f660a08901611679565b915061170460c08901611679565b905092959891949750929550565b60006020828403121561172457600080fd5b5035919050565b60008060006060848603121561174057600080fd5b833561174b81611484565b9250602084013561175b81611484565b929592945050506040919091013590565b60006020828403121561177e57600080fd5b5051919050565b600060e0828403121561179757600080fd5b60405160e0810181811067ffffffffffffffff821117156117c857634e487b7160e01b600052604160045260246000fd5b6040526117d4836114bd565b81526117e2602084016114bd565b60208201526117f3604084016114bd565b60408201526060830135606082015261180e6080840161166e565b608082015260a083013560a082015260c083013560c08201528091505092915050565b634e487b7160e01b600052603260045260246000fd5b634e487b7160e01b600052601160045260246000fd5b8082018082111561187057611870611847565b92915050565b8181038181111561187057611870611847565b60008060008060008060c087890312156118a257600080fd5b865195506020870151945060408701519350606087015192506080870151915060a087015190509295509295509295565b6000826118f057634e487b7160e01b600052601260045260246000fd5b500490565b600081518084526020808501945080840160005b8381101561192557815187529582019590820190600101611909565b509495945050505050565b60005b8381101561194b578181015183820152602001611933565b50506000910152565b6000815180845261196c816020860160208601611930565b601f01601f19169290920160200192915050565b6001600160a01b03888116825260e0602080840182905289519184018290526000928a820192909190610100860190855b818110156119cf5785518516835294830194918301916001016119b1565b505085810360408701526119e3818c6118f5565b935050505082810360608401526119fa81886118f5565b6001600160a01b0387166080850152905082810360a0840152611a1d8186611954565b915050611a3060c083018461ffff169052565b98975050505050505050565b808202811582820484141761187057611870611847565b600060208284031215611a6557600080fd5b81516114b681611660565b60008251611a82818460208701611930565b9190910192915050565b6020815260006114b6602083018461195456fea2646970667358221220ab9e8b51f58e3407b6e1a229a5fea8919c5a03229a17e37d1ced7df15cc4f59e64736f6c63430008130033",
  "linkReferences": {},
  "deployedLinkReferences": {}
}